:100000000C9434000C943E000C943E000C943E0082
:100010000C943E000C943E000C943E000C943E0068
:100020000C943E000C943E000C943E000C943E0058
:100030000C943E000C9440000C943E000C943E0046
:100040000C943E000C943E000C943E000C943E0038
:100050000C943E000C943E000C943E000C943E0028
:100060000C943E000C943E0011241FBECFEFD8E04C
:10007000DEBFCDBF0E9456000C9467000C940000B8
:1000800078940F920FB60F928F939F9380E295B161
:10009000982795B986ED92ED909385008093840022
:1000A0009F918F910F900FBE0F901895259A86ED16
:1000B00092ED90938500809384001092800085E0FB
:1000C0008093810081E080936F007894FFCFF89453
:0200D000FFCF60
:00000001FF
